:020000021000EC
:10C0000000000220F9C2010021C3010023C3010086
:10C0100025C3010027C3010029C30100000000005F
:10C020000000000000000000000000002BC3010021
:10C030002DC30100000000002FC3010031C3010027
:10C0400033C3010033C3010033C3010033C3010014
:10C0500033C3010033C3010033C3010033C3010004
:10C0600033C3010033C3010033C3010033C30100F4
:10C0700033C3010033C3010033C3010033C30100E4
:10C0800033C3010033C3010033C3010033C30100D4
:10C0900033C3010033C3010033C3010033C30100C4
:10C0A00033C3010033C3010033C3010033C30100B4
:10C0B00033C3010033C30100000000000000000092
:10C0C00033C3010033C3010033C3010033C3010094
:10C0D00033C3010033C3010033C3010033C3010084
:10C0E00033C3010033C3010033C30100000000006B
:10C0F0000000000033C301000000000033C3010052
:10C10000000000000000000000000000000000002F
:10C11000000000000000000000000000000000001F
:10C12000000000000000000000000000000000000F
:10C1300000000000000000000000000000000000FF
:10C1400000000000000000000000000000000000EF
:10C1500000000000000000000000000000000000DF
:10C1600000000000000000000000000000000000CF
:10C1700000000000000000000000000000000000BF
:10C1800000000000000000000000000000000000AF
:10C19000000000000000000000000000000000009F
:10C1A000000000000000000000000000000000008F
:10C1B000000000000000000000000000000000007F
:10C1C000000000000000000000000000000000006F
:10C1D000000000000000000000000000000000005F
:10C1E000000000000000000000000000000000004F
:10C1F000000000000000000000000000000000003F
:10C200000348044B834202D0034B03B118477047E5
:10C21000A8110020A8110020000000000548064BCE
:10C220001B1AD90F01EBA301491002D0034B03B134
:10C2300018477047A8110020A81100200000000036
:10C2400010B5064C237843B9FFF7DAFF044B13B15E
:10C250000448AFF300800123237010BDA811002013
:10C260000000000098C8010008B5044B1BB1044948
:10C270000448AFF30080BDE80840CFE700000000AD
:10C28000AC11002098C80100A3F5803A704700BFA8
:10C29000154B002B08BF114B9D46FFF7F5FF002102
:10C2A0008B460F461148124A121A00F0E7F90C4B60
:10C2B000002B00D098470B4B002B00D09847002054
:10C2C000002104000D000B4800F0C0F900F0DEF979
:10C2D0002000290000F0B4F800F0BEF900000800CA
:10C2E000000000000000000000000220A811002053
:10C2F0005C120020D5C601000649074A074B9B1A6D
:10C3000003DD043BC858D050FBDC00F0B1F8FFF768
:10C31000BFFF0000CCC8010098110020A811002028
:10C32000FEE7FEE7FEE7FEE7FEE7FEE7FEE7FEE7E5
:10C33000FEE7FEE70A4B185C1F288ABF09494FF049
:10C34000A04100F01F00D1F804350122824022EA0A
:10C3500003001340C1F80805C1F80C35704700BF51
:10C360008CC8010000030050C30706D4830742BFF6
:10C370002F4B0C22C3F81827704710B44FF080439E
:10C38000D3F84036D90723D44FF0A04328490322DD
:10C390004024C3F81827C3F82027C1F82427C3F87E
:10C3A0003027C3F808454FF400724FF48074C3F887
:10C3B0000845C1F808254FF48052C3F808258207C4
:10C3C00003D51B4B0C22C3F818275DF8044B7047AC
:10C3D0004FF01023D3F8043303F00703072BD3D116
:10C3E000144A0123C2F80435D2F80034002BFBD0E4
:10C3F0004FF010210020D1F804330E4C23F0070336
:10C4000043F00403C1F80433C2F80405D4F800343F
:10C41000002BFBD0BFF34F8F0749084BCA6802F4CB
:10C42000E0621343CB60BFF34F8F00BFFDE700BF57
:10C430000003005000E0014000ED00E00400FA05B8
:10C4400070B50120094DFFF78FFF45F0010500266B
:10C450003046FFF76FFF4FF4FA744FF47A40A84765
:10C46000013CFAD10136042EF2D1F0E790C8010068
:10C4700010B44FF08053D3F83021082A2FD06A4AE5
:10C48000D2F8883043F47003C2F88830BFF34F8F7E
:10C49000BFF36F8F4FF08053D3F83021082A11D0AB
:10C4A0004FF01023D3F80022002AC0F28C80D3F87A
:10C4B0000432002BC0F287805C4B5D4A1A605DF845
:10C4C000044B7047D3F83431032BE9D94FF01022D5
:10C4D0004FF08043D2F80822C3F85825E0E74FF028
:10C4E00080410020C1F80C01524AC1F81001C1F886
:10C4F0003805D3F80404C2F82005D3F80804C2F8BC
:10C500002405D3F80C04C2F82805D3F81004C2F8A7
:10C510002C05D3F81404C2F83005D3F81804C2F877
:10C520003405D3F81C04C2F84005D3F82004C2F83F
:10C530004405D3F82404C2F84805D3F82804C2F807
:10C540004C05D3F82C04C2F85005D3F83004C2F8D7
:10C550005405D3F83404C2F86005D3F83804C2F89F
:10C560006405D3F83C04C2F86805D3F84004C2F867
:10C570006C05D3F83401D3F84444C2F8704550B187
:10C580004FF08043D3F80024D20744BF6FF001027C
:10C59000C3F8002473E72848284CC0F88C4602F5FD
:10C5A0004052FB20C2F81805D1F8E42ED3F85842C7
:10C5B0002348134664F303034FF40072C1F8E43ECA
:10C5C000C0F84026DCE71F4A0123C2F80435D2F840
:10C5D0000034002BFBD04FF010231221194AC3F86E
:10C5E0000012D2F80034002BFBD04FF010231221A0
:10C5F000144AC3F80412D2F80034002BFBD00023F5
:10C600001049C2F80435D1F80034002BFBD0BFF339
:10C610004F8F05490C4BCA6802F4E0621343CB60AC
:10C62000BFF34F8F00BFFDE700ED00E09811002041
:10C630000090D00300C0004000500040488103003B
:10C640000090024000E001400400FA05002301468A
:10C650001A46184600F054B808B5064B044613B104
:10C66000002100F0A7F8044B1B6803B1984720464F
:10C6700000F0FEF8B5C70100C411002002440346D3
:10C68000934200D1704703F8011BF9E770B50D4BD9
:10C690000D4D5B1B9C100026A64209D100F0EAF864
:10C6A0000A4D0B4B5B1B9C100026A64205D170BDAA
:10C6B00055F8043B98470136EEE755F8043B984798
:10C6C0000136F2E7A0110020A0110020A0110020E7
:10C6D000A411002038B5074D074C641BA4101CB9E9
:10C6E000BDE8384000F0CCB8013C55F824309847FC
:10C6F000F5E700BFA4110020A81100207047704783
:10C700002DE9F047264E07463068924688469946FE
:10C71000FFF7F4FF234A15683DB9234B1360234A02
:10C7200012B11268C3F888201F4D6C681F2C06DDFB
:10C730003068FFF7E4FF4FF0FF30BDE8F0872FB31C
:10C74000D5F8880068B91A4B002BF1D04FF48470EB
:10C75000AFF300800028EBD00023C0E94033C5F8D8
:10C7600088006C6840F824A00122D0F80031A24073
:10C7700000EB84011343C0F80031022FC1F8809010
:10C7800002BFD0F804311343C0F80431631C0234F3
:10C7900030686B6045F82480FFF7B1FF0020CCE7DC
:10C7A0009C11002058120020CC1100200000000035
:10C7B000000000002DE9F74FDFF8AC800190D8F8B9
:10C7C0000000DFF8A8900F46FFF798FFD9F8005057
:10C7D00035B9D8F8000003B0BDE8F04FFFF78FBFC0
:10C7E0006C68D5F888B0661E013405EB84040BF143
:10C7F000800A002EEDDB4FB1BBF1000F02D1013EEC
:10C80000043CF6E75AF82620BA42F8D16968226853
:10C810000139B14216BF00236E602360002AEED0BA
:10C820006B680093BBF1000F07D0DBF80011012308
:10C8300003FA06FC1CEA010F09D190476968009BC6
:10C84000D9F800209942C1D19542D8D0BEE7DBF893
:10C8500004015BF826101CEA000F02D101989047F2
:10C86000ECE708469047E9E79C11002058120020A9
:10C87000FEE700BFF8B500BFF8BC08BC9E46704795
:10C88000F8B500BFF8BC08BC9E4670470608290CE6
:10C890000338FDD8704700001000000000000000C1
:10C8A000017A5200027C0E011B0C0D0010000000EA
:10C8B0001800000000000000100000000000000050
:04C8C0000000000074
:08C8C400C4F9FF7F0100000030
:10C8CC000090D003C811002069C2010041C20100D0
:040000031000C2F92E
:00000001FF
